{
  "_format": "hh-sol-artifact-1",
  "contractName": "MetaMoodiesClub",
  "sourceName": "contracts/MetaMoodiesClub.sol",
  "abi": [
    {
      "inputs": [
        {
          "internalType": "string",
          "name": "_initBaseURI",
          "type": "string"
        },
        {
          "internalType": "string",
          "name": "_initNotRevealedURI",
          "type": "string"
        }
      ],
      "stateMutability": "nonpayable",
      "type": "constructor"
    },
    {
      "anonymous": false,
      "inputs": [
        {
          "indexed": true,
          "internalType": "address",
          "name": "owner",
          "type": "address"
        },
        {
          "indexed": true,
          "internalType": "address",
          "name": "approved",
          "type": "address"
        },
        {
          "indexed": true,
          "internalType": "uint256",
          "name": "tokenId",
          "type": "uint256"
        }
      ],
      "name": "Approval",
      "type": "event"
    },
    {
      "anonymous": false,
      "inputs": [
        {
          "indexed": true,
          "internalType": "address",
          "name": "owner",
          "type": "address"
        },
        {
          "indexed": true,
          "internalType": "address",
          "name": "operator",
          "type": "address"
        },
        {
          "indexed": false,
          "internalType": "bool",
          "name": "approved",
          "type": "bool"
        }
      ],
      "name": "ApprovalForAll",
      "type": "event"
    },
    {
      "anonymous": false,
      "inputs": [
        {
          "indexed": true,
          "internalType": "address",
          "name": "previousOwner",
          "type": "address"
        },
        {
          "indexed": true,
          "internalType": "address",
          "name": "newOwner",
          "type": "address"
        }
      ],
      "name": "OwnershipTransferred",
      "type": "event"
    },
    {
      "anonymous": false,
      "inputs": [
        {
          "indexed": true,
          "internalType": "address",
          "name": "from",
          "type": "address"
        },
        {
          "indexed": true,
          "internalType": "address",
          "name": "to",
          "type": "address"
        },
        {
          "indexed": true,
          "internalType": "uint256",
          "name": "tokenId",
          "type": "uint256"
        }
      ],
      "name": "Transfer",
      "type": "event"
    },
    {
      "inputs": [],
      "name": "BASE_EXTENSION",
      "outputs": [
        {
          "internalType": "string",
          "name": "",
          "type": "string"
        }
      ],
      "stateMutability": "view",
      "type": "function"
    },
    {
      "inputs": [],
      "name": "MAX_GIFT_TOKENS",
      "outputs": [
        {
          "internalType": "uint256",
          "name": "",
          "type": "uint256"
        }
      ],
      "stateMutability": "view",
      "type": "function"
    },
    {
      "inputs": [],
      "name": "MAX_SUPPLY",
      "outputs": [
        {
          "internalType": "uint256",
          "name": "",
          "type": "uint256"
        }
      ],
      "stateMutability": "view",
      "type": "function"
    },
    {
      "inputs": [
        {
          "internalType": "address",
          "name": "to",
          "type": "address"
        },
        {
          "internalType": "uint256",
          "name": "tokenId",
          "type": "uint256"
        }
      ],
      "name": "approve",
      "outputs": [],
      "stateMutability": "nonpayable",
      "type": "function"
    },
    {
      "inputs": [
        {
          "internalType": "address",
          "name": "owner",
          "type": "address"
        }
      ],
      "name": "balanceOf",
      "outputs": [
        {
          "internalType": "uint256",
          "name": "",
          "type": "uint256"
        }
      ],
      "stateMutability": "view",
      "type": "function"
    },
    {
      "inputs": [],
      "name": "baseURI",
      "outputs": [
        {
          "internalType": "string",
          "name": "",
          "type": "string"
        }
      ],
      "stateMutability": "view",
      "type": "function"
    },
    {
      "inputs": [
        {
          "internalType": "uint256",
          "name": "tokenId",
          "type": "uint256"
        }
      ],
      "name": "getApproved",
      "outputs": [
        {
          "internalType": "address",
          "name": "",
          "type": "address"
        }
      ],
      "stateMutability": "view",
      "type": "function"
    },
    {
      "inputs": [],
      "name": "giftedAmount",
      "outputs": [
        {
          "internalType": "uint256",
          "name": "",
          "type": "uint256"
        }
      ],
      "stateMutability": "view",
      "type": "function"
    },
    {
      "inputs": [
        {
          "internalType": "address",
          "name": "owner",
          "type": "address"
        },
        {
          "internalType": "address",
          "name": "operator",
          "type": "address"
        }
      ],
      "name": "isApprovedForAll",
      "outputs": [
        {
          "internalType": "bool",
          "name": "",
          "type": "bool"
        }
      ],
      "stateMutability": "view",
      "type": "function"
    },
    {
      "inputs": [
        {
          "internalType": "address[]",
          "name": "receivers",
          "type": "address[]"
        }
      ],
      "name": "mintGifts",
      "outputs": [],
      "stateMutability": "nonpayable",
      "type": "function"
    },
    {
      "inputs": [
        {
          "internalType": "uint256",
          "name": "_mintAmount",
          "type": "uint256"
        },
        {
          "internalType": "bytes",
          "name": "signature",
          "type": "bytes"
        }
      ],
      "name": "mintPreSale",
      "outputs": [],
      "stateMutability": "payable",
      "type": "function"
    },
    {
      "inputs": [
        {
          "internalType": "uint256",
          "name": "_mintAmount",
          "type": "uint256"
        }
      ],
      "name": "mintPublicSale",
      "outputs": [],
      "stateMutability": "payable",
      "type": "function"
    },
    {
      "inputs": [],
      "name": "name",
      "outputs": [
        {
          "internalType": "string",
          "name": "",
          "type": "string"
        }
      ],
      "stateMutability": "view",
      "type": "function"
    },
    {
      "inputs": [],
      "name": "notRevealedURI",
      "outputs": [
        {
          "internalType": "string",
          "name": "",
          "type": "string"
        }
      ],
      "stateMutability": "view",
      "type": "function"
    },
    {
      "inputs": [],
      "name": "owner",
      "outputs": [
        {
          "internalType": "address",
          "name": "",
          "type": "address"
        }
      ],
      "stateMutability": "view",
      "type": "function"
    },
    {
      "inputs": [
        {
          "internalType": "uint256",
          "name": "tokenId",
          "type": "uint256"
        }
      ],
      "name": "ownerOf",
      "outputs": [
        {
          "internalType": "address",
          "name": "",
          "type": "address"
        }
      ],
      "stateMutability": "view",
      "type": "function"
    },
    {
      "inputs": [],
      "name": "preSaleCost",
      "outputs": [
        {
          "internalType": "uint256",
          "name": "",
          "type": "uint256"
        }
      ],
      "stateMutability": "view",
      "type": "function"
    },
    {
      "inputs": [],
      "name": "preSaleLimitPerAddress",
      "outputs": [
        {
          "internalType": "uint256",
          "name": "",
          "type": "uint256"
        }
      ],
      "stateMutability": "view",
      "type": "function"
    },
    {
      "inputs": [],
      "name": "preSaleLive",
      "outputs": [
        {
          "internalType": "bool",
          "name": "",
          "type": "bool"
        }
      ],
      "stateMutability": "view",
      "type": "function"
    },
    {
      "inputs": [
        {
          "internalType": "address",
          "name": "",
          "type": "address"
        }
      ],
      "name": "preSalePurchases",
      "outputs": [
        {
          "internalType": "uint256",
          "name": "",
          "type": "uint256"
        }
      ],
      "stateMutability": "view",
      "type": "function"
    },
    {
      "inputs": [],
      "name": "publicSaleCost",
      "outputs": [
        {
          "internalType": "uint256",
          "name": "",
          "type": "uint256"
        }
      ],
      "stateMutability": "view",
      "type": "function"
    },
    {
      "inputs": [],
      "name": "publicSaleLimitPerAddress",
      "outputs": [
        {
          "internalType": "uint256",
          "name": "",
          "type": "uint256"
        }
      ],
      "stateMutability": "view",
      "type": "function"
    },
    {
      "inputs": [],
      "name": "publicSaleLive",
      "outputs": [
        {
          "internalType": "bool",
          "name": "",
          "type": "bool"
        }
      ],
      "stateMutability": "view",
      "type": "function"
    },
    {
      "inputs": [
        {
          "internalType": "address",
          "name": "",
          "type": "address"
        }
      ],
      "name": "publicSalePurchases",
      "outputs": [
        {
          "internalType": "uint256",
          "name": "",
          "type": "uint256"
        }
      ],
      "stateMutability": "view",
      "type": "function"
    },
    {
      "inputs": [],
      "name": "remainingSupply",
      "outputs": [
        {
          "internalType": "uint256",
          "name": "",
          "type": "uint256"
        }
      ],
      "stateMutability": "view",
      "type": "function"
    },
    {
      "inputs": [],
      "name": "renounceOwnership",
      "outputs": [],
      "stateMutability": "nonpayable",
      "type": "function"
    },
    {
      "inputs": [],
      "name": "reveal",
      "outputs": [],
      "stateMutability": "nonpayable",
      "type": "function"
    },
    {
      "inputs": [],
      "name": "revealed",
      "outputs": [
        {
          "internalType": "bool",
          "name": "",
          "type": "bool"
        }
      ],
      "stateMutability": "view",
      "type": "function"
    },
    {
      "inputs": [
        {
          "internalType": "address",
          "name": "from",
          "type": "address"
        },
        {
          "internalType": "address",
          "name": "to",
          "type": "address"
        },
        {
          "internalType": "uint256",
          "name": "tokenId",
          "type": "uint256"
        }
      ],
      "name": "safeTransferFrom",
      "outputs": [],
      "stateMutability": "nonpayable",
      "type": "function"
    },
    {
      "inputs": [
        {
          "internalType": "address",
          "name": "from",
          "type": "address"
        },
        {
          "internalType": "address",
          "name": "to",
          "type": "address"
        },
        {
          "internalType": "uint256",
          "name": "tokenId",
          "type": "uint256"
        },
        {
          "internalType": "bytes",
          "name": "_data",
          "type": "bytes"
        }
      ],
      "name": "safeTransferFrom",
      "outputs": [],
      "stateMutability": "nonpayable",
      "type": "function"
    },
    {
      "inputs": [
        {
          "internalType": "address",
          "name": "operator",
          "type": "address"
        },
        {
          "internalType": "bool",
          "name": "approved",
          "type": "bool"
        }
      ],
      "name": "setApprovalForAll",
      "outputs": [],
      "stateMutability": "nonpayable",
      "type": "function"
    },
    {
      "inputs": [
        {
          "internalType": "string",
          "name": "_newBaseURI",
          "type": "string"
        }
      ],
      "name": "setBaseURI",
      "outputs": [],
      "stateMutability": "nonpayable",
      "type": "function"
    },
    {
      "inputs": [
        {
          "internalType": "uint256",
          "name": "_preSaleCost",
          "type": "uint256"
        },
        {
          "internalType": "uint256",
          "name": "_publicSaleCost",
          "type": "uint256"
        }
      ],
      "name": "setCost",
      "outputs": [],
      "stateMutability": "nonpayable",
      "type": "function"
    },
    {
      "inputs": [
        {
          "internalType": "uint256",
          "name": "_preSaleLimit",
          "type": "uint256"
        },
        {
          "internalType": "uint256",
          "name": "_publicSaleLimit",
          "type": "uint256"
        }
      ],
      "name": "setLimitPerAddress",
      "outputs": [],
      "stateMutability": "nonpayable",
      "type": "function"
    },
    {
      "inputs": [
        {
          "internalType": "string",
          "name": "_newNotRevealedURI",
          "type": "string"
        }
      ],
      "name": "setNotRevealedURI",
      "outputs": [],
      "stateMutability": "nonpayable",
      "type": "function"
    },
    {
      "inputs": [
        {
          "internalType": "address",
          "name": "_whitelister",
          "type": "address"
        }
      ],
      "name": "setWhitelister",
      "outputs": [],
      "stateMutability": "nonpayable",
      "type": "function"
    },
    {
      "inputs": [
        {
          "internalType": "bytes4",
          "name": "interfaceId",
          "type": "bytes4"
        }
      ],
      "name": "supportsInterface",
      "outputs": [
        {
          "internalType": "bool",
          "name": "",
          "type": "bool"
        }
      ],
      "stateMutability": "view",
      "type": "function"
    },
    {
      "inputs": [],
      "name": "symbol",
      "outputs": [
        {
          "internalType": "string",
          "name": "",
          "type": "string"
        }
      ],
      "stateMutability": "view",
      "type": "function"
    },
    {
      "inputs": [],
      "name": "togglePreSaleStatus",
      "outputs": [],
      "stateMutability": "nonpayable",
      "type": "function"
    },
    {
      "inputs": [],
      "name": "togglePublicSaleStatus",
      "outputs": [],
      "stateMutability": "nonpayable",
      "type": "function"
    },
    {
      "inputs": [],
      "name": "tokenSupply",
      "outputs": [
        {
          "internalType": "uint256",
          "name": "",
          "type": "uint256"
        }
      ],
      "stateMutability": "view",
      "type": "function"
    },
    {
      "inputs": [
        {
          "internalType": "uint256",
          "name": "tokenId",
          "type": "uint256"
        }
      ],
      "name": "tokenURI",
      "outputs": [
        {
          "internalType": "string",
          "name": "",
          "type": "string"
        }
      ],
      "stateMutability": "view",
      "type": "function"
    },
    {
      "inputs": [
        {
          "internalType": "address",
          "name": "from",
          "type": "address"
        },
        {
          "internalType": "address",
          "name": "to",
          "type": "address"
        },
        {
          "internalType": "uint256",
          "name": "tokenId",
          "type": "uint256"
        }
      ],
      "name": "transferFrom",
      "outputs": [],
      "stateMutability": "nonpayable",
      "type": "function"
    },
    {
      "inputs": [
        {
          "internalType": "address",
          "name": "newOwner",
          "type": "address"
        }
      ],
      "name": "transferOwnership",
      "outputs": [],
      "stateMutability": "nonpayable",
      "type": "function"
    }
  ],
  "bytecode": "0x608060405266470de4df820000600955666a94d74f430000600a556003600b556006600c556000600d55600e805462ffffff191690553480156200004257600080fd5b5060405162002e5038038062002e5083398101604081905262000065916200037c565b604080518082018252601181527026b2ba309026b7b7b234b2b99021b63ab160791b6020808301918252835180850190945260038452624d4d4360e81b908401528151919291620000b99160009162000223565b508051620000cf90600190602084019062000223565b505050620000ec620000e66200010a60201b60201c565b6200010e565b620000f78262000160565b6200010281620001c8565b505062000436565b3390565b600680546001600160a01b038381166001600160a01b0319831681179093556040519116919082907f8be0079c531659141344cd1fd0a4f28419497f9722a3daafe3b4186f6b6457e090600090a35050565b6006546001600160a01b03163314620001af5760405162461bcd60e51b8152602060048201819052602482015260008051602062002e3083398151915260448201526064015b60405180910390fd5b8051620001c490600f90602084019062000223565b5050565b6006546001600160a01b03163314620002135760405162461bcd60e51b8152602060048201819052602482015260008051602062002e308339815191526044820152606401620001a6565b8051620001c49060109060208401905b8280546200023190620003e3565b90600052602060002090601f016020900481019282620002555760008555620002a0565b82601f106200027057805160ff1916838001178555620002a0565b82800160010185558215620002a0579182015b82811115620002a057825182559160200191906001019062000283565b50620002ae929150620002b2565b5090565b5b80821115620002ae5760008155600101620002b3565b600082601f830112620002da578081fd5b81516001600160401b0380821115620002f757620002f762000420565b604051601f8301601f19908116603f0116810190828211818310171562000322576200032262000420565b816040528381526020925086838588010111156200033e578485fd5b8491505b8382101562000361578582018301518183018401529082019062000342565b838211156200037257848385830101525b9695505050505050565b600080604083850312156200038f578182fd5b82516001600160401b0380821115620003a6578384fd5b620003b486838701620002c9565b93506020850151915080821115620003ca578283fd5b50620003d985828601620002c9565b9150509250929050565b600181811c90821680620003f857607f821691505b602082108114156200041a57634e487b7160e01b600052602260045260246000fd5b50919050565b634e487b7160e01b600052604160045260246000fd5b6129ea80620004466000396000f3fe6080604052600436106102675760003560e01c806370a0823111610144578063b9ad9fde116100b6578063e985e9c51161007a578063e985e9c5146106c9578063ee69fcf814610712578063ef0f39741461073f578063f2c4ce1e14610752578063f2fde38b14610772578063f98f5b921461079257600080fd5b8063b9ad9fde14610638578063c87b56dd1461064d578063cc9ff9c61461066d578063da0239a614610683578063df3fdf001461069857600080fd5b80638da5cb5b116101085780638da5cb5b146105905780638e3db591146105ae57806395d89b41146105ce578063a22cb465146105e3578063a475b5dd14610603578063b88d4fde1461061857600080fd5b806370a0823114610511578063715018a61461053157806372250380146105465780637696e0881461055b5780637824407f1461057b57600080fd5b80633c33eec4116101dd57806355f804b3116101a157806355f804b31461047a5780635a5e5d581461049a5780635bd90b76146104ad5780636352211e146104c75780636c0360eb146104e75780636d123d19146104fc57600080fd5b80633c33eec4146103ef57806342842e0e14610404578063453afb0f1461042457806346e558b91461043a578063518302271461045a57600080fd5b806323b872dd1161022f57806323b872dd1461034157806326d93800146103615780632815d6cb1461038057806332cb6b0c14610396578063346a4b6b146103ac5780633b77ea92146103c257600080fd5b806301ffc9a71461026c57806306fdde03146102a1578063081812fc146102c3578063095ea7b3146102fb5780631b57190e1461031d575b600080fd5b34801561027857600080fd5b5061028c610287366004612506565b6107b2565b60405190151581526020015b60405180910390f35b3480156102ad57600080fd5b506102b6610804565b60405161029891906126e0565b3480156102cf57600080fd5b506102e36102de366004612584565b610896565b6040516001600160a01b039091168152602001610298565b34801561030757600080fd5b5061031b61031636600461246d565b610930565b005b34801561032957600080fd5b50610333600d5481565b604051908152602001610298565b34801561034d57600080fd5b5061031b61035c36600461237f565b610a46565b34801561036d57600080fd5b50600e5461028c90610100900460ff1681565b34801561038c57600080fd5b50610333600b5481565b3480156103a257600080fd5b5061033361277581565b3480156103b857600080fd5b50610333600c5481565b3480156103ce57600080fd5b506103336103dd366004612333565b60126020526000908152604090205481565b3480156103fb57600080fd5b5061031b610a77565b34801561041057600080fd5b5061031b61041f36600461237f565b610abb565b34801561043057600080fd5b50610333600a5481565b34801561044657600080fd5b5061031b610455366004612496565b610ad6565b34801561046657600080fd5b50600e5461028c9062010000900460ff1681565b34801561048657600080fd5b5061031b61049536600461253e565b610c20565b61031b6104a8366004612584565b610c61565b3480156104b957600080fd5b50600e5461028c9060ff1681565b3480156104d357600080fd5b506102e36104e2366004612584565b610de6565b3480156104f357600080fd5b506102b6610e5d565b34801561050857600080fd5b50610333606581565b34801561051d57600080fd5b5061033361052c366004612333565b610eeb565b34801561053d57600080fd5b5061031b610f72565b34801561055257600080fd5b506102b6610fa8565b34801561056757600080fd5b5061031b610576366004612613565b610fb5565b34801561058757600080fd5b50610333610fea565b34801561059c57600080fd5b506006546001600160a01b03166102e3565b3480156105ba57600080fd5b5061031b6105c9366004612613565b610ffa565b3480156105da57600080fd5b506102b661102f565b3480156105ef57600080fd5b5061031b6105fe366004612433565b61103e565b34801561060f57600080fd5b5061031b611103565b34801561062457600080fd5b5061031b6106333660046123ba565b611140565b34801561064457600080fd5b5061031b611172565b34801561065957600080fd5b506102b6610668366004612584565b6111bc565b34801561067957600080fd5b5061033360095481565b34801561068f57600080fd5b50610333611338565b3480156106a457600080fd5b506102b660405180604001604052806005815260200164173539b7b760d91b81525081565b3480156106d557600080fd5b5061028c6106e436600461234d565b6001600160a01b03918216600090815260056020908152604080832093909416825291909152205460ff1690565b34801561071e57600080fd5b5061033361072d366004612333565b60116020526000908152604090205481565b61031b61074d36600461259c565b61134f565b34801561075e57600080fd5b5061031b61076d36600461253e565b6115c4565b34801561077e57600080fd5b5061031b61078d366004612333565b611601565b34801561079e57600080fd5b5061031b6107ad366004612333565b61169c565b60006001600160e01b031982166380ac58cd60e01b14806107e357506001600160e01b03198216635b5e139f60e01b145b806107fe57506301ffc9a760e01b6001600160e01b03198316145b92915050565b606060008054610813906128f2565b80601f016020809104026020016040519081016040528092919081815260200182805461083f906128f2565b801561088c5780601f106108615761010080835404028352916020019161088c565b820191906000526020600020905b81548152906001019060200180831161086f57829003601f168201915b5050505050905090565b6000818152600260205260408120546001600160a01b03166109145760405162461bcd60e51b815260206004820152602c60248201527f4552433732313a20617070726f76656420717565727920666f72206e6f6e657860448201526b34b9ba32b73a103a37b5b2b760a11b60648201526084015b60405180910390fd5b506000908152600460205260409020546001600160a01b031690565b600061093b82610de6565b9050806001600160a01b0316836001600160a01b031614156109a95760405162461bcd60e51b815260206004820152602160248201527f4552433732313a20617070726f76616c20746f2063757272656e74206f776e656044820152603960f91b606482015260840161090b565b336001600160a01b03821614806109c557506109c581336106e4565b610a375760405162461bcd60e51b815260206004820152603860248201527f4552433732313a20617070726f76652063616c6c6572206973206e6f74206f7760448201527f6e6572206e6f7220617070726f76656420666f7220616c6c0000000000000000606482015260840161090b565b610a4183836116e8565b505050565b610a503382611756565b610a6c5760405162461bcd60e51b815260040161090b906127e9565b610a4183838361184d565b6006546001600160a01b03163314610aa15760405162461bcd60e51b815260040161090b906127b4565b600e805461ff001960ff8216151661ffff19909116179055565b610a4183838360405180602001604052806000815250611140565b6006546001600160a01b03163314610b005760405162461bcd60e51b815260040161090b906127b4565b8080610b1e5760405162461bcd60e51b815260040161090b9061283a565b61277581610b2b60075490565b610b359190612864565b1115610b535760405162461bcd60e51b815260040161090b90612787565b600d54606590610b64908490612864565b1115610bab5760405162461bcd60e51b815260206004820152601660248201527552616e206f7574206f66206769667420746f6b656e7360501b604482015260640161090b565b60005b82811015610c1a57600d8054906000610bc68361292d565b9190505550610c08848483818110610bee57634e487b7160e01b600052603260045260246000fd5b9050602002016020810190610c039190612333565b6119ed565b80610c128161292d565b915050610bae565b50505050565b6006546001600160a01b03163314610c4a5760405162461bcd60e51b815260040161090b906127b4565b8051610c5d90600f906020840190612208565b5050565b600e54610100900460ff1680610caf5760405162461bcd60e51b81526020600482015260136024820152724d696e74206973206e6f74206163746976652160681b604482015260640161090b565b8160008111610cd05760405162461bcd60e51b815260040161090b9061283a565b61277581610cdd60075490565b610ce79190612864565b1115610d055760405162461bcd60e51b815260040161090b90612787565b82600a54610d139190612890565b80341015610d5d5760405162461bcd60e51b81526020600482015260176024820152764e6f7420656e6f7567682045544820746f206d696e742160481b604482015260640161090b565b33600090815260126020526040902054600c54610d7a8683612864565b1115610d985760405162461bcd60e51b815260040161090b90612745565b60005b85811015610dde57336000908152601260205260408120805491610dbe8361292d565b9190505550610dcc336119ed565b80610dd68161292d565b915050610d9b565b505050505050565b6000818152600260205260408120546001600160a01b0316806107fe5760405162461bcd60e51b815260206004820152602960248201527f4552433732313a206f776e657220717565727920666f72206e6f6e657869737460448201526832b73a103a37b5b2b760b91b606482015260840161090b565b600f8054610e6a906128f2565b80601f0160208091040260200160405190810160405280929190818152602001828054610e96906128f2565b8015610ee35780601f10610eb857610100808354040283529160200191610ee3565b820191906000526020600020905b815481529060010190602001808311610ec657829003601f168201915b505050505081565b60006001600160a01b038216610f565760405162461bcd60e51b815260206004820152602a60248201527f4552433732313a2062616c616e636520717565727920666f7220746865207a65604482015269726f206164647265737360b01b606482015260840161090b565b506001600160a01b031660009081526003602052604090205490565b6006546001600160a01b03163314610f9c5760405162461bcd60e51b815260040161090b906127b4565b610fa66000611a0d565b565b60108054610e6a906128f2565b6006546001600160a01b03163314610fdf5760405162461bcd60e51b815260040161090b906127b4565b600991909155600a55565b6000610ff560075490565b905090565b6006546001600160a01b031633146110245760405162461bcd60e51b815260040161090b906127b4565b600b91909155600c55565b606060018054610813906128f2565b6001600160a01b0382163314156110975760405162461bcd60e51b815260206004820152601960248201527f4552433732313a20617070726f766520746f2063616c6c657200000000000000604482015260640161090b565b3360008181526005602090815260408083206001600160a01b03871680855290835292819020805460ff191686151590811790915590519081529192917f17307eab39ab6107e8899845ad3d59bd9653f200f220920489ca2b5937696c31910160405180910390a35050565b6006546001600160a01b0316331461112d5760405162461bcd60e51b815260040161090b906127b4565b600e805462ff0000191662010000179055565b61114a3383611756565b6111665760405162461bcd60e51b815260040161090b906127e9565b610c1a84848484611a5f565b6006546001600160a01b0316331461119c5760405162461bcd60e51b815260040161090b906127b4565b600e805461010060ff19821681900460ff16150261ffff19909116179055565b6000818152600260205260409020546060906001600160a01b031661121b5760405162461bcd60e51b8152602060048201526015602482015274546f6b656e20646f6573206e6f742065786973742160581b604482015260640161090b565b600e5462010000900460ff166112bd5760108054611238906128f2565b80601f0160208091040260200160405190810160405280929190818152602001828054611264906128f2565b80156112b15780601f10611286576101008083540402835291602001916112b1565b820191906000526020600020905b81548152906001019060200180831161129457829003601f168201915b50505050509050919050565b60006112c7611a92565b905060008151116112e75760405180602001604052806000815250611331565b806112f184611aa1565b60405180604001604052806005815260200164173539b7b760d91b81525060405160200161132193929190612660565b6040516020818303038152906040525b9392505050565b600061134360075490565b610ff5906127756128af565b600e5460ff16806113985760405162461bcd60e51b81526020600482015260136024820152724d696e74206973206e6f74206163746976652160681b604482015260640161090b565b83600081116113b95760405162461bcd60e51b815260040161090b9061283a565b612775816113c660075490565b6113d09190612864565b11156113ee5760405162461bcd60e51b815260040161090b90612787565b846009546113fc9190612890565b803410156114465760405162461bcd60e51b81526020600482015260176024820152764e6f7420656e6f7567682045544820746f206d696e742160481b604482015260640161090b565b6040517f19457468657265756d205369676e6564204d6573736167653a0a333200000000602082015233603c820152600090605c0160405160208183030381529060405280519060200120905060006114d787878080601f0160208091040260200160405190810160405280939291908181526020018383808284376000920191909152508693925050611bbb9050565b6008549091506001600160a01b038083169116146115375760405162461bcd60e51b815260206004820152601e60248201527f4e6f74207369676e6564206279207468652077686974656c6973746572210000604482015260640161090b565b33600090815260116020526040902054600b546115548a83612864565b11156115725760405162461bcd60e51b815260040161090b90612745565b60005b898110156115b8573360009081526011602052604081208054916115988361292d565b91905055506115a6336119ed565b806115b08161292d565b915050611575565b50505050505050505050565b6006546001600160a01b031633146115ee5760405162461bcd60e51b815260040161090b906127b4565b8051610c5d906010906020840190612208565b6006546001600160a01b0316331461162b5760405162461bcd60e51b815260040161090b906127b4565b6001600160a01b0381166116905760405162461bcd60e51b815260206004820152602660248201527f4f776e61626c653a206e6577206f776e657220697320746865207a65726f206160448201526564647265737360d01b606482015260840161090b565b61169981611a0d565b50565b6006546001600160a01b031633146116c65760405162461bcd60e51b815260040161090b906127b4565b600880546001600160a01b0319166001600160a01b0392909216919091179055565b600081815260046020526040902080546001600160a01b0319166001600160a01b038416908117909155819061171d82610de6565b6001600160a01b03167f8c5be1e5ebec7d5bd14f71427d1e84f3dd0314c0f7b2291e5b200ac8c7c3b92560405160405180910390a45050565b6000818152600260205260408120546001600160a01b03166117cf5760405162461bcd60e51b815260206004820152602c60248201527f4552433732313a206f70657261746f7220717565727920666f72206e6f6e657860448201526b34b9ba32b73a103a37b5b2b760a11b606482015260840161090b565b60006117da83610de6565b9050806001600160a01b0316846001600160a01b031614806118155750836001600160a01b031661180a84610896565b6001600160a01b0316145b8061184557506001600160a01b0380821660009081526005602090815260408083209388168352929052205460ff165b949350505050565b826001600160a01b031661186082610de6565b6001600160a01b0316146118c85760405162461bcd60e51b815260206004820152602960248201527f4552433732313a207472616e73666572206f6620746f6b656e2074686174206960448201526839903737ba1037bbb760b91b606482015260840161090b565b6001600160a01b03821661192a5760405162461bcd60e51b8152602060048201526024808201527f4552433732313a207472616e7366657220746f20746865207a65726f206164646044820152637265737360e01b606482015260840161090b565b6119356000826116e8565b6001600160a01b038316600090815260036020526040812080546001929061195e9084906128af565b90915550506001600160a01b038216600090815260036020526040812080546001929061198c908490612864565b909155505060008181526002602052604080822080546001600160a01b0319166001600160a01b0386811691821790925591518493918716917fddf252ad1be2c89b69c2b068fc378daa952ba7f163c4a11628f55a4df523b3ef91a4505050565b6119fb600780546001019055565b61169981611a0860075490565b611bdf565b600680546001600160a01b038381166001600160a01b0319831681179093556040519116919082907f8be0079c531659141344cd1fd0a4f28419497f9722a3daafe3b4186f6b6457e090600090a35050565b611a6a84848461184d565b611a7684848484611bf9565b610c1a5760405162461bcd60e51b815260040161090b906126f3565b6060600f8054610813906128f2565b606081611ac55750506040805180820190915260018152600360fc1b602082015290565b8160005b8115611aef5780611ad98161292d565b9150611ae89050600a8361287c565b9150611ac9565b60008167ffffffffffffffff811115611b1857634e487b7160e01b600052604160045260246000fd5b6040519080825280601f01601f191660200182016040528015611b42576020820181803683370190505b5090505b841561184557611b576001836128af565b9150611b64600a86612948565b611b6f906030612864565b60f81b818381518110611b9257634e487b7160e01b600052603260045260246000fd5b60200101906001600160f81b031916908160001a905350611bb4600a8661287c565b9450611b46565b6000806000611bca8585611d06565b91509150611bd781611d76565b509392505050565b610c5d828260405180602001604052806000815250611f77565b60006001600160a01b0384163b15611cfb57604051630a85bd0160e11b81526001600160a01b0385169063150b7a0290611c3d9033908990889088906004016126a3565b602060405180830381600087803b158015611c5757600080fd5b505af1925050508015611c87575060408051601f3d908101601f19168201909252611c8491810190612522565b60015b611ce1573d808015611cb5576040519150601f19603f3d011682016040523d82523d6000602084013e611cba565b606091505b508051611cd95760405162461bcd60e51b815260040161090b906126f3565b805181602001fd5b6001600160e01b031916630a85bd0160e11b149050611845565b506001949350505050565b600080825160411415611d3d5760208301516040840151606085015160001a611d3187828585611faa565b94509450505050611d6f565b825160401415611d675760208301516040840151611d5c868383612097565b935093505050611d6f565b506000905060025b9250929050565b6000816004811115611d9857634e487b7160e01b600052602160045260246000fd5b1415611da15750565b6001816004811115611dc357634e487b7160e01b600052602160045260246000fd5b1415611e115760405162461bcd60e51b815260206004820152601860248201527f45434453413a20696e76616c6964207369676e61747572650000000000000000604482015260640161090b565b6002816004811115611e3357634e487b7160e01b600052602160045260246000fd5b1415611e815760405162461bcd60e51b815260206004820152601f60248201527f45434453413a20696e76616c6964207369676e6174757265206c656e67746800604482015260640161090b565b6003816004811115611ea357634e487b7160e01b600052602160045260246000fd5b1415611efc5760405162461bcd60e51b815260206004820152602260248201527f45434453413a20696e76616c6964207369676e6174757265202773272076616c604482015261756560f01b606482015260840161090b565b6004816004811115611f1e57634e487b7160e01b600052602160045260246000fd5b14156116995760405162461bcd60e51b815260206004820152602260248201527f45434453413a20696e76616c6964207369676e6174757265202776272076616c604482015261756560f01b606482015260840161090b565b611f8183836120c6565b611f8e6000848484611bf9565b610a415760405162461bcd60e51b815260040161090b906126f3565b6000807f7fffffffffffffffffffffffffffffff5d576e7357a4501ddfe92f46681b20a0831115611fe1575060009050600361208e565b8460ff16601b14158015611ff957508460ff16601c14155b1561200a575060009050600461208e565b6040805160008082526020820180845289905260ff881692820192909252606081018690526080810185905260019060a0016020604051602081039080840390855afa15801561205e573d6000803e3d6000fd5b5050604051601f1901519150506001600160a01b0381166120875760006001925092505061208e565b9150600090505b94509492505050565b6000806001600160ff1b03831660ff84901c601b016120b887828885611faa565b935093505050935093915050565b6001600160a01b03821661211c5760405162461bcd60e51b815260206004820181905260248201527f4552433732313a206d696e7420746f20746865207a65726f2061646472657373604482015260640161090b565b6000818152600260205260409020546001600160a01b0316156121815760405162461bcd60e51b815260206004820152601c60248201527f4552433732313a20746f6b656e20616c7265616479206d696e74656400000000604482015260640161090b565b6001600160a01b03821660009081526003602052604081208054600192906121aa908490612864565b909155505060008181526002602052604080822080546001600160a01b0319166001600160a01b03861690811790915590518392907fddf252ad1be2c89b69c2b068fc378daa952ba7f163c4a11628f55a4df523b3ef908290a45050565b828054612214906128f2565b90600052602060002090601f016020900481019282612236576000855561227c565b82601f1061224f57805160ff191683800117855561227c565b8280016001018555821561227c579182015b8281111561227c578251825591602001919060010190612261565b5061228892915061228c565b5090565b5b80821115612288576000815560010161228d565b600067ffffffffffffffff808411156122bc576122bc612988565b604051601f8501601f19908116603f011681019082821181831017156122e4576122e4612988565b816040528093508581528686860111156122fd57600080fd5b858560208301376000602087830101525050509392505050565b80356001600160a01b038116811461232e57600080fd5b919050565b600060208284031215612344578081fd5b61133182612317565b6000806040838503121561235f578081fd5b61236883612317565b915061237660208401612317565b90509250929050565b600080600060608486031215612393578081fd5b61239c84612317565b92506123aa60208501612317565b9150604084013590509250925092565b600080600080608085870312156123cf578081fd5b6123d885612317565b93506123e660208601612317565b925060408501359150606085013567ffffffffffffffff811115612408578182fd5b8501601f81018713612418578182fd5b612427878235602084016122a1565b91505092959194509250565b60008060408385031215612445578182fd5b61244e83612317565b915060208301358015158114612462578182fd5b809150509250929050565b6000806040838503121561247f578182fd5b61248883612317565b946020939093013593505050565b600080602083850312156124a8578182fd5b823567ffffffffffffffff808211156124bf578384fd5b818501915085601f8301126124d2578384fd5b8135818111156124e0578485fd5b8660208260051b85010111156124f4578485fd5b60209290920196919550909350505050565b600060208284031215612517578081fd5b81356113318161299e565b600060208284031215612533578081fd5b81516113318161299e565b60006020828403121561254f578081fd5b813567ffffffffffffffff811115612565578182fd5b8201601f81018413612575578182fd5b611845848235602084016122a1565b600060208284031215612595578081fd5b5035919050565b6000806000604084860312156125b0578283fd5b83359250602084013567ffffffffffffffff808211156125ce578384fd5b818601915086601f8301126125e1578384fd5b8135818111156125ef578485fd5b876020828501011115612600578485fd5b6020830194508093505050509250925092565b60008060408385031215612625578182fd5b50508035926020909101359150565b6000815180845261264c8160208601602086016128c6565b601f01601f19169290920160200192915050565b600084516126728184602089016128c6565b8451908301906126868183602089016128c6565b84519101906126998183602088016128c6565b0195945050505050565b6001600160a01b03858116825284166020820152604081018390526080606082018190526000906126d690830184612634565b9695505050505050565b6020815260006113316020830184612634565b60208082526032908201527f4552433732313a207472616e7366657220746f206e6f6e20455243373231526560408201527131b2b4bb32b91034b6b83632b6b2b73a32b960711b606082015260800190565b60208082526022908201527f6d6178204e4654206d696e742070657220616464726573732065786365656465604082015261642160f01b606082015260800190565b60208082526013908201527245786365656473206d617820737570706c792160681b604082015260600190565b6020808252818101527f4f776e61626c653a2063616c6c6572206973206e6f7420746865206f776e6572604082015260600190565b60208082526031908201527f4552433732313a207472616e736665722063616c6c6572206973206e6f74206f6040820152701ddb995c881b9bdc88185c1c1c9bdd9959607a1b606082015260800190565b60208082526010908201526f4d696e74206174206c6561737420312160801b604082015260600190565b600082198211156128775761287761295c565b500190565b60008261288b5761288b612972565b500490565b60008160001904831182151516156128aa576128aa61295c565b500290565b6000828210156128c1576128c161295c565b500390565b60005b838110156128e15781810151838201526020016128c9565b83811115610c1a5750506000910152565b600181811c9082168061290657607f821691505b6020821081141561292757634e487b7160e01b600052602260045260246000fd5b50919050565b60006000198214156129415761294161295c565b5060010190565b60008261295757612957612972565b500690565b634e487b7160e01b600052601160045260246000fd5b634e487b7160e01b600052601260045260246000fd5b634e487b7160e01b600052604160045260246000fd5b6001600160e01b03198116811461169957600080fdfea264697066735822122084131300f8a99cd376022e5a1967f7e4b54493df5a7f6b04798fe7259ff0e90e64736f6c634300080400334f776e61626c653a2063616c6c6572206973206e6f7420746865206f776e6572",
  "linkReferences": {},
  "deployedLinkReferences": {}
}